{
  "contractName": "TicTacToe",
  "abi": [
    {
      "inputs": [],
      "payable": true,
      "stateMutability": "payable",
      "type": "constructor"
    },
    {
      "anonymous": false,
      "inputs": [],
      "name": "GameOverWithDraw",
      "type": "event"
    },
    {
      "anonymous": false,
      "inputs": [
        {
          "indexed": false,
          "internalType": "address",
          "name": "winner",
          "type": "address"
        }
      ],
      "name": "GameOverWithWin",
      "type": "event"
    },
    {
      "anonymous": false,
      "inputs": [
        {
          "indexed": false,
          "internalType": "address",
          "name": "player",
          "type": "address"
        }
      ],
      "name": "NextPlayer",
      "type": "event"
    },
    {
      "anonymous": false,
      "inputs": [
        {
          "indexed": false,
          "internalType": "address",
          "name": "receiver",
          "type": "address"
        },
        {
          "indexed": false,
          "internalType": "uint256",
          "name": "amountInWei",
          "type": "uint256"
        }
      ],
      "name": "PayoutSuccess",
      "type": "event"
    },
    {
      "anonymous": false,
      "inputs": [
        {
          "indexed": false,
          "internalType": "address",
          "name": "player",
          "type": "address"
        }
      ],
      "name": "PlayerJoined",
      "type": "event"
    },
    {
      "constant": true,
      "inputs": [],
      "name": "boardSize",
      "outputs": [
        {
          "internalType": "uint8",
          "name": "",
          "type": "uint8"
        }
      ],
      "payable": false,
      "stateMutability": "view",
      "type": "function"
    },
    {
      "constant": true,
      "inputs": [],
      "name": "gameCost",
      "outputs": [
        {
          "internalType": "uint256",
          "name": "",
          "type": "uint256"
        }
      ],
      "payable": false,
      "stateMutability": "view",
      "type": "function"
    },
    {
      "constant": true,
      "inputs": [],
      "name": "player1",
      "outputs": [
        {
          "internalType": "address payable",
          "name": "",
          "type": "address"
        }
      ],
      "payable": false,
      "stateMutability": "view",
      "type": "function"
    },
    {
      "constant": true,
      "inputs": [],
      "name": "player2",
      "outputs": [
        {
          "internalType": "address payable",
          "name": "",
          "type": "address"
        }
      ],
      "payable": false,
      "stateMutability": "view",
      "type": "function"
    },
    {
      "constant": false,
      "inputs": [],
      "name": "joinGame",
      "outputs": [],
      "payable": true,
      "stateMutability": "payable",
      "type": "function"
    },
    {
      "constant": true,
      "inputs": [],
      "name": "getBoard",
      "outputs": [
        {
          "internalType": "address[3][3]",
          "name": "",
          "type": "address[3][3]"
        }
      ],
      "payable": false,
      "stateMutability": "view",
      "type": "function"
    },
    {
      "constant": false,
      "inputs": [],
      "name": "withdrawWin",
      "outputs": [],
      "payable": false,
      "stateMutability": "nonpayable",
      "type": "function"
    },
    {
      "constant": false,
      "inputs": [],
      "name": "emergecyCashout",
      "outputs": [],
      "payable": false,
      "stateMutability": "nonpayable",
      "type": "function"
    },
    {
      "constant": false,
      "inputs": [
        {
          "internalType": "uint8",
          "name": "x",
          "type": "uint8"
        },
        {
          "internalType": "uint8",
          "name": "y",
          "type": "uint8"
        }
      ],
      "name": "setStone",
      "outputs": [],
      "payable": false,
      "stateMutability": "nonpayable",
      "type": "function"
    }
  ],
  "bytecode": "0x608060405260036000806101000a81548160ff021916908360ff16021790555060b4600e5533600a60006101000a81548173ffffffffffffffffffffffffffffffffffffffff021916908373ffffffffffffffffffffffffffffffffffffffff160217905550662386f26fc1000034146100e1576040517f08c379a000000000000000000000000000000000000000000000000000000000815260040180806020018281038252601b8152602001807f5375626d697420736f6d65206d6f6e65792c2061626f7274696e67000000000081525060200191505060405180910390fd5b600e544201600f81905550611625806100fb6000396000f3fe6080604052600436106100865760003560e01c8063cab896dc11610059578063cab896dc146101d4578063d30895e4146101ff578063d4f77b1c14610256578063ea40a2a214610260578063fb8155031461027757610086565b80633264a34b1461008b57806359a5f12d146101015780637d3f907414610158578063c51d69f4146101a3575b600080fd5b34801561009757600080fd5b506100a061028e565b604051808260036000925b818410156100f15782846020020151600360200280838360005b838110156100e05780820151818401526020810190506100c5565b5050505090500192600101926100ab565b9250505091505060405180910390f35b34801561010d57600080fd5b50610116610347565b604051808273ffffffffffffffffffffffffffffffffffffffff1673ffffffffffffffffffffffffffffffffffffffff16815260200191505060405180910390f35b34801561016457600080fd5b506101a16004803603604081101561017b57600080fd5b81019080803560ff169060200190929190803560ff16906020019092919050505061036d565b005b3480156101af57600080fd5b506101b8610be6565b604051808260ff1660ff16815260200191505060405180910390f35b3480156101e057600080fd5b506101e9610bf8565b6040518082815260200191505060405180910390f35b34801561020b57600080fd5b50610214610c03565b604051808273ffffffffffffffffffffffffffffffffffffffff1673ffffffffffffffffffffffffffffffffffffffff16815260200191505060405180910390f35b61025e610c29565b005b34801561026c57600080fd5b50610275610ee6565b005b34801561028357600080fd5b5061028c610f17565b005b6102966115a1565b6001600380602002604051908101604052809291906000905b8282101561033e5783826003020160038060200260405190810160405280929190826003801561032a576020028201915b8160009054906101000a900473ffffffffffffffffffffffffffffffffffffffff1673ffffffffffffffffffffffffffffffffffffffff16815260200190600101908083116102e0575b5050505050815260200190600101906102af565b50505050905090565b600b60009054906101000a900473ffffffffffffffffffffffffffffffffffffffff1681565b600073ffffffffffffffffffffffffffffffffffffffff1660018360ff166003811061039557fe5b600302018260ff16600381106103a757fe5b0160009054906101000a900473ffffffffffffffffffffffffffffffffffffffff1673ffffffffffffffffffffffffffffffffffffffff16146103e957600080fd5b42600f54116103f757600080fd5b600060029054906101000a900460ff1661040d57fe5b6000809054906101000a900460ff1660ff168260ff161061042a57fe5b6000809054906101000a900460ff1660ff168160ff161061044757fe5b601060009054906101000a900473ffffffffffffffffffffffffffffffffffffffff1673ffffffffffffffffffffffffffffffffffffffff163373ffffffffffffffffffffffffffffffffffffffff16146104a157600080fd5b3360018360ff16600381106104b257fe5b600302018260ff16600381106104c457fe5b0160006101000a81548173ffffffffffffffffffffffffffffffffffffffff021916908373ffffffffffffffffffffffffffffffffffffffff1602179055506000600181819054906101000a900460ff168092919060010191906101000a81548160ff021916908360ff16021790555050600e544201600f8190555060008090505b6000809054906101000a900460ff1660ff168160ff16101561065c57601060009054906101000a900473ffffffffffffffffffffffffffffffffffffffff1673ffffffffffffffffffffffffffffffffffffffff1660018260ff16600381106105ab57fe5b600302018360ff16600381106105bd57fe5b0160009054906101000a900473ffffffffffffffffffffffffffffffffffffffff1673ffffffffffffffffffffffffffffffffffffffff16146105ff5761065c565b60016000809054906101000a900460ff160360ff168160ff16141561064f57610649601060009054906101000a900473ffffffffffffffffffffffffffffffffffffffff1661119c565b50610be2565b8080600101915050610546565b5060008090505b6000809054906101000a900460ff1660ff1681101561077057601060009054906101000a900473ffffffffffffffffffffffffffffffffffffffff1673ffffffffffffffffffffffffffffffffffffffff1660018460ff16600381106106c557fe5b6003020182600381106106d457fe5b0160009054906101000a900473ffffffffffffffffffffffffffffffffffffffff1673ffffffffffffffffffffffffffffffffffffffff161461071657610770565b60016000809054906101000a900460ff160360ff168114156107635761075d601060009054906101000a900473ffffffffffffffffffffffffffffffffffffffff1661119c565b50610be2565b8080600101915050610663565b508060ff168260ff1614156108915760008090505b6000809054906101000a900460ff1660ff1681101561088f57601060009054906101000a900473ffffffffffffffffffffffffffffffffffffffff1673ffffffffffffffffffffffffffffffffffffffff16600182600381106107e457fe5b6003020182600381106107f357fe5b0160009054906101000a900473ffffffffffffffffffffffffffffffffffffffff1673ffffffffffffffffffffffffffffffffffffffff16146108355761088f565b60016000809054906101000a900460ff160360ff168114156108825761087c601060009054906101000a900473ffffffffffffffffffffffffffffffffffffffff1661119c565b50610be2565b8080600101915050610785565b505b60016000809054906101000a900460ff160360ff1681830160ff1614156109da5760008090505b6000809054906101000a900460ff1660ff168110156109d857601060009054906101000a900473ffffffffffffffffffffffffffffffffffffffff1673ffffffffffffffffffffffffffffffffffffffff166001826003811061091757fe5b600302018260016000809054906101000a900460ff160360ff16036003811061093c57fe5b0160009054906101000a900473ffffffffffffffffffffffffffffffffffffffff1673ffffffffffffffffffffffffffffffffffffffff161461097e576109d8565b60016000809054906101000a900460ff160360ff168114156109cb576109c5601060009054906101000a900473ffffffffffffffffffffffffffffffffffffffff1661119c565b50610be2565b80806001019150506108b8565b505b60026000809054906101000a900460ff1660ff160a60ff16600060019054906101000a900460ff1660ff161415610a1857610a1361133d565b610be2565b600a60009054906101000a900473ffffffffffffffffffffffffffffffffffffffff1673ffffffffffffffffffffffffffffffffffffffff16601060009054906101000a900473ffffffffffffffffffffffffffffffffffffffff1673ffffffffffffffffffffffffffffffffffffffff161415610af857600b60009054906101000a900473ffffffffffffffffffffffffffffffffffffffff16601060006101000a81548173ffffffffffffffffffffffffffffffffffffffff021916908373ffffffffffffffffffffffffffffffffffffffff160217905550610b5c565b600a60009054906101000a900473ffffffffffffffffffffffffffffffffffffffff16601060006101000a81548173ffffffffffffffffffffffffffffffffffffffff021916908373ffffffffffffffffffffffffffffffffffffffff1602179055505b7f637351f91da430278368fb3e486c8c3da47b2e6ce4d28b2c404cb044702ca7e1601060009054906101000a900473ffffffffffffffffffffffffffffffffffffffff16604051808273ffffffffffffffffffffffffffffffffffffffff1673ffffffffffffffffffffffffffffffffffffffff16815260200191505060405180910390a15b5050565b6000809054906101000a900460ff1681565b662386f26fc1000081565b600a60009054906101000a900473ffffffffffffffffffffffffffffffffffffffff1681565b600073ffffffffffffffffffffffffffffffffffffffff16600b60009054906101000a900473ffffffffffffffffffffffffffffffffffffffff1673ffffffffffffffffffffffffffffffffffffffff1614610c8157fe5b6001600060026101000a81548160ff021916908315150217905550662386f26fc100003414610caf57600080fd5b33600b60006101000a81548173ffffffffffffffffffffffffffffffffffffffff021916908373ffffffffffffffffffffffffffffffffffffffff1602179055507f31e760aa525306aba638a784082a013b6a1cc0a9a1789f3f22281c0453b10b1f600b60009054906101000a900473ffffffffffffffffffffffffffffffffffffffff16604051808273ffffffffffffffffffffffffffffffffffffffff1673ffffffffffffffffffffffffffffffffffffffff16815260200191505060405180910390a1600060024381610d8157fe5b061415610df057600b60009054906101000a900473ffffffffffffffffffffffffffffffffffffffff16601060006101000a81548173ffffffffffffffffffffffffffffffffffffffff021916908373ffffffffffffffffffffffffffffffffffffffff160217905550610e54565b600a60009054906101000a900473ffffffffffffffffffffffffffffffffffffffff16601060006101000a81548173ffffffffffffffffffffffffffffffffffffffff021916908373ffffffffffffffffffffffffffffffffffffffff1602179055505b600e544201600f819055507f637351f91da430278368fb3e486c8c3da47b2e6ce4d28b2c404cb044702ca7e1601060009054906101000a900473ffffffffffffffffffffffffffffffffffffffff16604051808273ffffffffffffffffffffffffffffffffffffffff1673ffffffffffffffffffffffffffffffffffffffff16815260200191505060405180910390a1565b42600f5410610ef457600080fd5b600060029054906101000a900460ff16610f0d57600080fd5b610f1561133d565b565b6000600a60009054906101000a900473ffffffffffffffffffffffffffffffffffffffff1673ffffffffffffffffffffffffffffffffffffffff163373ffffffffffffffffffffffffffffffffffffffff161415611086576000600c5411610f7e57600080fd5b600c5490506000600c81905550600a60009054906101000a900473ffffffffffffffffffffffffffffffffffffffff1673ffffffffffffffffffffffffffffffffffffffff166108fc829081150290604051600060405180830381858888f19350505050158015610ff3573d6000803e3d6000fd5b507f2a44162a2d5223e37cacacc3f626dcfee1396e0be3616534c5c7b718f786b673600a60009054906101000a900473ffffffffffffffffffffffffffffffffffffffff1682604051808373ffffffffffffffffffffffffffffffffffffffff1673ffffffffffffffffffffffffffffffffffffffff1681526020018281526020019250505060405180910390a1611199565b6000600d541161109557600080fd5b600d5490506000600d81905550600b60009054906101000a900473ffffffffffffffffffffffffffffffffffffffff1673ffffffffffffffffffffffffffffffffffffffff166108fc829081150290604051600060405180830381858888f1935050505015801561110a573d6000803e3d6000fd5b507f2a44162a2d5223e37cacacc3f626dcfee1396e0be3616534c5c7b718f786b673600b60009054906101000a900473ffffffffffffffffffffffffffffffffffffffff1682604051808373ffffffffffffffffffffffffffffffffffffffff1673ffffffffffffffffffffffffffffffffffffffff1681526020018281526020019250505060405180910390a15b50565b60008060026101000a81548160ff0219169083151502179055507f8245a3876d42d9b0bdb7f24184c03fc24e3d8a079f492b1ec9ceae70b366edf981604051808273ffffffffffffffffffffffffffffffffffffffff1673ffffffffffffffffffffffffffffffffffffffff16815260200191505060405180910390a16000479050600115158273ffffffffffffffffffffffffffffffffffffffff166108fc839081150290604051600060405180830381858888f193505050501515146112cd57600a60009054906101000a900473ffffffffffffffffffffffffffffffffffffffff1673ffffffffffffffffffffffffffffffffffffffff168273ffffffffffffffffffffffffffffffffffffffff1614156112c05780600c819055506112c8565b80600d819055505b611339565b7f2a44162a2d5223e37cacacc3f626dcfee1396e0be3616534c5c7b718f786b6738282604051808373ffffffffffffffffffffffffffffffffffffffff1673ffffffffffffffffffffffffffffffffffffffff1681526020018281526020019250505060405180910390a15b5050565b60008060026101000a81548160ff0219169083151502179055507f2207d46a2ba0f2acda06e9a222b40fd004e385738b3f868e63b2c0bfe4bc094c60405160405180910390a160006002478161138f57fe5b04905060001515600a60009054906101000a900473ffffffffffffffffffffffffffffffffffffffff1673ffffffffffffffffffffffffffffffffffffffff166108fc839081150290604051600060405180830381858888f193505050501515141561140a5780600c60008282540192505081905550611498565b7f2a44162a2d5223e37cacacc3f626dcfee1396e0be3616534c5c7b718f786b673600a60009054906101000a900473ffffffffffffffffffffffffffffffffffffffff1682604051808373ffffffffffffffffffffffffffffffffffffffff1673ffffffffffffffffffffffffffffffffffffffff1681526020018281526020019250505060405180910390a15b60001515600b60009054906101000a900473ffffffffffffffffffffffffffffffffffffffff1673ffffffffffffffffffffffffffffffffffffffff166108fc839081150290604051600060405180830381858888f19350505050151514156115105780600d6000828254019250508190555061159e565b7f2a44162a2d5223e37cacacc3f626dcfee1396e0be3616534c5c7b718f786b673600b60009054906101000a900473ffffffffffffffffffffffffffffffffffffffff1682604051808373ffffffffffffffffffffffffffffffffffffffff1673ffffffffffffffffffffffffffffffffffffffff1681526020018281526020019250505060405180910390a15b50565b60405180606001604052806003905b6115b86115ce565b8152602001906001900390816115b05790505090565b604051806060016040528060039060208202803883398082019150509050509056fea265627a7a72315820eb105ae3bc8749255262860ca7fb7530b506a7783bfd54f8fa13ecf3d85d161c64736f6c63430005100032",
  "source": "pragma solidity ^0.5.0;\r\n\r\ncontract TicTacToe {\r\n    uint constant public gameCost = 0.01 ether;\r\n\r\n    uint8 public boardSize = 3;\r\n    uint8 movesCounter;\r\n\r\n    bool gameActive;\r\n\r\n    address[3][3] board;\r\n\r\n    address payable public player1;\r\n    address payable public player2;\r\n\r\n    uint balanceToWithdrawPlayer1;\r\n    uint balanceToWithdrawPlayer2;\r\n\r\n    uint timeToReact = 3 minutes;\r\n    uint gameValidUntil;\r\n\r\n    address payable activePlayer;\r\n\r\n    event PlayerJoined(address player);\r\n    event NextPlayer(address player);\r\n    event GameOverWithWin(address winner);\r\n    event GameOverWithDraw();\r\n    event PayoutSuccess(address receiver, uint amountInWei);\r\n\r\n    constructor() public payable {\r\n        player1 = msg.sender;\r\n        require(msg.value == gameCost, \"Submit some money, aborting\");\r\n        gameValidUntil = now+timeToReact;\r\n    }\r\n\r\n    function joinGame() public payable {\r\n        assert(player2 == address(0));\r\n        gameActive = true;\r\n\r\n        require(msg.value == gameCost);\r\n\r\n        player2 = msg.sender;\r\n        emit PlayerJoined(player2);\r\n        if(block.number % 2 == 0) {\r\n            activePlayer = player2;\r\n        } else {\r\n            activePlayer = player1;\r\n        }\r\n\r\n        gameValidUntil = now + timeToReact;\r\n\r\n        emit NextPlayer(activePlayer);\r\n    }\r\n\r\n    function getBoard() public view returns(address[3][3] memory) {\r\n        return board;\r\n    }\r\n\r\n    function setWinner(address payable player) private {\r\n        gameActive = false;\r\n        //emit an event\r\n        emit GameOverWithWin(player);\r\n        uint balanceToPayOut = address(this).balance;\r\n         /**\r\n        * In Real-World application consider removing the player.send part completely and let the player\r\n        * Withdraw the money later on!\r\n         */\r\n        if(player.send(balanceToPayOut) != true) {\r\n            if(player == player1) {\r\n                balanceToWithdrawPlayer1 = balanceToPayOut;\r\n            } else {\r\n                balanceToWithdrawPlayer2 = balanceToPayOut;\r\n            }\r\n        } else {\r\n            emit PayoutSuccess(player, balanceToPayOut);\r\n        }\r\n        //transfer money to the winner\r\n    }\r\n\r\n    function withdrawWin() public {\r\n      uint balanceToTransfer;\r\n        if(msg.sender == player1) {\r\n            require(balanceToWithdrawPlayer1 > 0);\r\n            balanceToTransfer = balanceToWithdrawPlayer1;\r\n            balanceToWithdrawPlayer1 = 0;\r\n            player1.transfer(balanceToTransfer);\r\n\r\n            emit PayoutSuccess(player1, balanceToTransfer);\r\n        } else {\r\n\r\n            require(balanceToWithdrawPlayer2 > 0);\r\n            balanceToTransfer = balanceToWithdrawPlayer2;\r\n            balanceToWithdrawPlayer2 = 0;\r\n            player2.transfer(balanceToTransfer);\r\n            emit PayoutSuccess(player2, balanceToTransfer);\r\n        }\r\n    }\r\n\r\n    function setDraw() private {\r\n        gameActive = false;\r\n        emit GameOverWithDraw();\r\n\r\n        uint balanceToPayOut = address(this).balance/2;\r\n\r\n        if(player1.send(balanceToPayOut) == false) {\r\n            balanceToWithdrawPlayer1 += balanceToPayOut;\r\n        } else {\r\n            emit PayoutSuccess(player1, balanceToPayOut);\r\n        }\r\n        if(player2.send(balanceToPayOut) == false) {\r\n            balanceToWithdrawPlayer2 += balanceToPayOut;\r\n        } else {\r\n            emit PayoutSuccess(player2, balanceToPayOut);\r\n        }\r\n\r\n    }\r\n\r\n    function emergecyCashout() public {\r\n        require(gameValidUntil < now);\r\n        require(gameActive);\r\n        setDraw();\r\n    }\r\n\r\n\r\n    function setStone(uint8 x, uint8 y) public {\r\n        require(board[x][y] == address(0));\r\n        require(gameValidUntil > now);\r\n        assert(gameActive);\r\n        assert(x < boardSize);\r\n        assert(y < boardSize);\r\n        require(msg.sender == activePlayer);\r\n        board[x][y] = msg.sender;\r\n        movesCounter++;\r\n        gameValidUntil = now + timeToReact;\r\n\r\n        for(uint8 i = 0; i < boardSize; i++) {\r\n            if(board[i][y] != activePlayer) {\r\n                break;\r\n            }\r\n            //win\r\n            if(i == boardSize - 1) {\r\n                //winner\r\n                setWinner(activePlayer);\r\n                return;\r\n            }\r\n        }\r\n        for(uint i = 0; i < boardSize; i++) {\r\n            if(board[x][i] != activePlayer) {\r\n                break;\r\n            }\r\n            //win\r\n\r\n            if(i == boardSize - 1) {\r\n                //winner\r\n                setWinner(activePlayer);\r\n                return;\r\n            }\r\n        }\r\n\r\n        //diagonale\r\n        if(x == y) {\r\n            for(uint i = 0; i < boardSize; i++) {\r\n                if(board[i][i] != activePlayer) {\r\n                    break;\r\n                }\r\n                //win\r\n                if(i == boardSize - 1) {\r\n                    //winner\r\n                    setWinner(activePlayer);\r\n                    return;\r\n                }\r\n            }\r\n        }\r\n\r\n        //anti-diagonale\r\n        if((x+y) == boardSize-1) {\r\n            for(uint i = 0; i < boardSize; i++) {\r\n                if(board[i][(boardSize-1)-i] != activePlayer) {\r\n                    break;\r\n                }\r\n                //win\r\n\r\n                if(i == boardSize - 1) {\r\n                    //winner\r\n                    setWinner(activePlayer);\r\n                    return;\r\n                }\r\n            }\r\n        }\r\n\r\n        //draw\r\n        if(movesCounter == (boardSize**2)) {\r\n            //draw\r\n            setDraw();\r\n            return;\r\n        }\r\n\r\n        if(activePlayer == player1) {\r\n            activePlayer = player2;\r\n        } else {\r\n            activePlayer = player1;\r\n        }\r\n        emit NextPlayer(activePlayer);\r\n    }\r\n}\r\n",
  "sourcePath": "/home/ankit/Documents/Smart Contracts/TictactoeChain/contracts/TicTacToe.sol",
  "compiler": {
    "name": "solc",
    "version": "0.5.16+commit.9c3226ce.Emscripten.clang"
  },
  "schemaVersion": "3.0.23",
  "updatedAt": "2020-02-11T00:00:33.014Z",
  "devdoc": {
    "methods": {}
  },
  "userdoc": {
    "methods": {}
  }
}